:020000040800F2
:10000000000002204D1D00084B1D0008491D00087E
:10001000491D0008491D0008491D00080000000096
:100020000000000000000000000000004B1D000860
:100030004B1D0008000000004B1D00081D030008B8
:10004000491D0008491D0008491D0008491D0008F8
:10005000491D0008491D0008491D0008491D0008E8
:10006000491D0008491D0008491D0008491D0008D8
:10007000491D0008491D0008491D0008491D0008C8
:10008000491D0008491D0008491D0008491D0008B8
:10009000491D0008491D0008491D0008491D0008A8
:1000A000491D0008491D0008491D0008491D000898
:1000B000491D0008491D0008491D0008491D000888
:1000C000491D0008491D0008491D0008491D000878
:1000D000491D0008491D0008491D0008491D000868
:1000E000491D0008491D0008491D0008491D000858
:1000F000491D0008491D0008491D0008491D000848
:10010000491D0008491D0008491D0008491D000837
:10011000491D0008491D0008491D0008491D000827
:10012000491D0008491D0008491D0008491D000817
:10013000491D0008491D0008491D0008491D000807
:10014000491D0008491D0008491D000869080008EC
:10015000491D0008491D0008491D0008491D0008E7
:10016000491D0008491D0008491D0008491D0008D7
:10017000491D0008491D0008491D0008491D0008C7
:10018000491D0008491D0008491D0008491D0008B7
:10019000491D0008491D0008491D0008491D0008A7
:1001A000491D0008491D0008491D0008022901D108
:1001B00000F062BB012901D100F0FCBB704708B51B
:1001C00000F0B6FBBDE8084000F016BC38B50E4C98
:1001D000237813F0FD0F054608D1C20706D500F0BD
:1001E000C7FB002802DB0223637004E02378012BA5
:1001F00002D94FF0FF3038BDAB07FAD500F002FC52
:100200000028F6DB0123EFE75800002010B5064C6C
:10021000A06000F015FCFFF7D9FF002802DAA36800
:10022000002BF6D110BD00BF5800002008B5FFF725
:10023000EDFFA0F120035842584108BD73B50446B4
:1002400001AE00256420FFF7E1FF002807DB013540
:10025000042D06F8010BF5D1019B2360002002B0AC
:1002600070BD000070B5094E3378022B04460D4670
:1002700001D100F087FB3378012B05D129462046B8
:10028000BDE8704000F0CCBB70BD00BF580000203E
:10029000054B596910B54A1C9C69D2B294421EBFE5
:1002A000C9185A61087710BD58000020064AD2E9E3
:1002B00005138B421FBFD1180133DBB2087F14BF77
:1002C00093614FF0FF3070475800002010B5114C7B
:1002D000236801331DD06268A2421AD30E4B9B687B
:1002E00003F1006303F580439A4212D200F00AFC46
:1002F00000F0E0FBFFF763FF00F0E4FB00F0A2FB7F
:10030000204600F003FCD4E9003283F3088810474C
:10031000FEE710BD004000080C000020084A002342
:1003200002EB8301486810B1486801384860013326
:10033000042BF5D1D3680BB93223D360704700BFCB
:1003400058000020024B18611A69002AFCD170473E
:10035000580000202DE9F04FBA4EDFF8F0928BB034
:1003600000238046D9F808403370029300F08EFBDA
:10037000B8F1000F01D0C6F804804FF0FF37B8F194
:10038000000F03D07368002B00F015820020FFF7E8
:100390003DFF0390039B002BF1DB039B213B102BC4
:1003A000EDD801A252F823F0ED0300080304000881
:1003B0006B0400087F0300087F0300087F03000828
:1003C000DD0400087F030008790500081506000811
:1003D00061060008A1060008EF060008C106000833
:1003E0007F03000859070008A50400080220FFF752
:1003F0001DFF002800F0D481029B43F0010302930B
:1004000050E04FF47A70FFF701FF051EC0F2C8817B
:100410000220FFF70BFF002800F0C281681E0428AD
:1004200000F2BE81DFE800F0030B0E1114008648D5
:100430000421FFF717FF029B43F00203DFE7834825
:100440000421F6E782480421F3E782480421F0E71B
:100450001C25284600F07AFB04350590042105A8E8
:10046000FFF700FF2C2DF4D1E5E70220FFF7DEFEB9
:10047000002800F09581029B03F00303032B40F05A
:100480008F8100F041FB0024204600F045FBC0B9FD
:100490000446D9F80830A34218D8029B43F004035D
:1004A0000293002433780BB97378337041F212034E
:1004B000022105A8ADF814304FF00008FFF7D2FE76
:1004C00064E7204600F04CFB0134DDE7204600F0F5
:1004D0003DFB013040F037810434DAE73220FFF78A
:1004E00095FE051EC0F25C8115F0030340F05881B3
:1004F000D9F808102A198A4200F25281B5F5807F96
:1005000000F24E81DFF854A1D346AB4215D1C8208A
:10051000FFF78CFE002800F043812CB94FF0FF3329
:10052000D6F81C71C6F81C3125F003052544AC42F1
:1005300013D1029B43F0080361E74FF47A700193F3
:10054000FFF764FE039003990029C0F22981019B03
:1005500003990BF8011B0133D7E7DAF800102046A6
:1005600000F0EEFA204600F0F1FA5AF8043B984207
:1005700040F0E9800434DAE70220FFF757FE002854
:1005800000F00E810025A84631E0002D3DD1791CF8
:100590003BD00597D6F82022C2B92F481346082130
:1005A00003F0010C5B08BCF1000F07D083F06D4332
:1005B00083F4380383F4034383F020030139EFD13C
:1005C0000132B2F5807F40F8043BE7D105A9002253
:1005D00011F8013B83EA0803DBB206EB8303013227
:1005E000D3F81C32042A83EA1828F1D10435D9F84B
:1005F0000830AB42C9D8042105A8CDF81480FFF714
:1006000031FE029B43F01003F9E6284600F09EFA03
:100610000590BFE7002304A80493FFF70FFE00280E
:1006200040F0BE800220FFF701FE002800F0B880F5
:10063000049800F0C5FA0421059005A8FFF712FE02
:1006400030E700BF58000020DC2500080C00002027
:10065000100000201400002074020020740100200B
:10066000002304A80493FFF7E9FD002840F09880D8
:100670000220FFF7DBFD002800F09280049882073B
:1006800040F08E80082800F28B8000F005FB0421EA
:10069000059005A8FFF7E6FD029B43F04003AEE698
:1006A0000220FFF7C3FD00287AD000F099FA042158
:1006B000059005A8FFF7D6FD029B43F080039EE658
:1006C0000220FFF7B3FD00286AD005A9142000F02E
:1006D0008DFA04210546049004A8FFF7C3FD2946BE
:1006E00005A8FFF7BFFD029B43F4807387E66420F3
:1006F000FFF78CFD002853DBC5B21E2D50D8022019
:10070000FFF794FD00284BD04FF4D07000F01EFA94
:1007100082464FF4D27000F019FA284B9A453FD127
:10072000274B98423CD1DFF89CA045EA0A0A514683
:100730004FF4D07000F004FA4FF4D07000F006FAD5
:1007400050453FF4AFAE41F21213022105A8ADF8B7
:100750001430FFF787FD12E64FF47A70FFF766FD5D
:10076000F0B17B1C0DD141F2120305A80221ADF8B6
:100770001430FFF777FD64200BB0BDE8F04FFFF7B2
:10078000E1BD029B03F01B031B2B09D1394600205E
:1007900000F0D6F9002000F0D9F9B842E3D0D2E752
:1007A00041F21233022105A8ADF81430FFF75AFDCB
:1007B00000230293E3E50BB0BDE8F08FFFECC2929B
:1007C0005D7D05C500ECC2924978212909D0222916
:1007D00009D0202909D11888062894BF00200120BB
:1007E0007047034B1360012070470020704700BF23
:1007F000FC25000837B5104B009304460025402324
:100800000222012100F0EAFD204600954023022249
:10081000822100F0E3FD204600951023032283216E
:1008200000F0DCFD054B7F222121204603B0BDE80E
:10083000304001F077B900BF41080008C90700083F
:1008400070B590B040236A46012100F0EFFD6C4680
:1008500005460026AE4201D310B070BD14F8010B5E
:10086000FFF716FD0136F5E7024B186808B100F0F6
:10087000ABBD7047740600201FB52548254C0121EB
:1008800000F04AFD2448802100F046FD4FF4C0539B
:1008900022480022022100F005FC20484FF4C052FB
:1008A0000A2100F01FFC4FF0A0431D489A6B42F450
:1008B00000129A63DA6BB2F5005F02BF1A6842F069
:1008C000C0021A608023174A0293231D0193032359
:1008D00002F10D010093144B00F04EFD134920600E
:1008E00000F0DDFF4FF0A043DA6BB2F5005F09D1F5
:1008F0009A6B42F404129A63D3F8042822F002029D
:10090000C3F80428432004B0BDE8104001F098BAB1
:1009100030380240740600203438024000000240A3
:10092000C02700080326000800000020F507000883
:1009300010B50C4C432001F091FA206820B1012140
:1009400000F046FD002323600022074811464FF4C3
:10095000C05300F0A7FBBDE810400448802100F020
:10096000DFBC00BF740600200000024034380240A3
:10097000034B1B680BB1FFF799BC4FF0FF3070477A
:100980007406002070B50A4E336805460C4663B9FC
:1009900070BD402C234628BF40232A4630689BB2B6
:1009A000822100F03BFD241A0544002CF1D1EFE731
:1009B0007406002010B50F4C4FF4E131206000F0B8
:1009C000BDFB2068082100F0D1FB2068002100F069
:1009D000D6FB20680C2100F0DEFB2068002100F02F
:1009E000D4FB2068002100F0DCFB2068BDE810404B
:1009F00000F0DDBBF8060020014B186800F0DCBBFE
:100A0000F806002008B5054B186803689B0602D558
:100A100000F0E7FB08BD4FF0FF30FBE7F8060020D1
:100A200070B5064E04464518AC4200D170BD14F8AE
:100A3000011B306800F0C5FBF6E700BFF806002098
:100A400007207047002208B511460C48402300F0EB
:100A500029FB002211468023084800F023FB0848A8
:100A6000102100F05DFC07484FF0805100F058FC69
:100A7000054B4FF48012C3F8302808BD0004024033
:100A800044380240403802400030024008B504209B
:100A900001F0B0F9064BDB684FF47A70584301F06F
:100AA000A3F901F0B1F9BDE8084001F0BBB900BFFE
:100AB0000C00002008B501F0AEF9BDE8084001F0D7
:100AC000B8B9000038B504200C4C00F0CBF9002573
:100AD000042000F0BFF90320C4F8085800F0FCF926
:100AE000284600F0F9F900F031FA054BC4F8043853
:100AF000032000F029FCC4F80C5838BD0030024037
:100B00001030002400F096BB00F080BB4FF0E023D3
:100B1000C3F8080D70470000074B5B8CB3F5806F7E
:100B20000CBF0B231723834283BF044B03EBC0008E
:100B300040680020704700BF007AFF1FD8260008D9
:100B400000F1006000F5804000F096BB830703BF12
:100B500000F1006000F58040006800207047000050
:100B600038B5154B5B8CB3F5806F0CBF0B23172387
:100B7000834202460AD900210D46914207D1104610
:100B8000FFF7CAFF00210446A14206D338BD08463C
:100B9000FFF7C2FF01310544EFE76818FFF7D6FF02
:100BA000013001D10431EFE7044B022113F8320088
:100BB000BDE8384000F07CBB007AFF1FD826000853
:100BC00010F003030AD1B0F5007F05D800F1005002
:100BD000A0F51040D0F80038184670470023FBE716
:100BE000014B1868704700BF002004E02DE9F04376
:100BF000274B284A1B685769157E0446C3F30B0C24
:100C000000201B0C02F1100E4FF00C0808FB00F640
:100C100036F80E90E14529D132445769157E42F2EB
:100C20000102934226D0B3F5805F25D041F2010244
:100C3000934223D041F20302934221D041F20702B2
:100C4000934208BF3125621E0A447C1E0B46934224
:100C50001CD214F8016F581CA6B92C2482421C70B7
:100C600001D9981C5D70401ABDE8F083013004285A
:100C7000CCD1D4E73325E6E74125E4E75A25E2E77E
:100C80005925E0E700F8016C0346E0E71846EAE77B
:100C9000002004E00C00002000F10050A0F51040FE
:100CA000D0F8100A704700004FF0E02210B5D2F8DB
:100CB000883D404843F47003C2F8883D3E4B3F4AAC
:100CC0005B8C103B9B020221936000F025FB3948AE
:100CD000022100F021FB3A4840230122022100F0CA
:100CE000E1F9802336480122022100F0DBF9344883
:100CF0004022072100F0F6F980223148072100F058
:100D0000F1F93048102100F007FB4FF080512E48D8
:100D100000F002FB2D4800F075F92D4B2D481A68A4
:100D200042F480721A602C4AD2F8701841F40041E3
:100D3000C2F87018D0F85048196821F48071196011
:100D400026498C4233D1196841F480711960D2F878
:100D50007018002441F40041C2F87018C0F85048DF
:100D60001A6822F480721A601D4AD2E968311D4A5D
:100D700091420DD11C4A23F0FF01914208D1DBB210
:100D80001E2B05D84FF47A7253439C4238BF1C4641
:100D900016480121FFF70AFA02210020FFF706FAA0
:100DA0002046FFF7D7FA0024FFF790FAF8E741F260
:100DB0008834D9E730380240007AFF1F0C00002049
:100DC00000040240443802404038024090270008A6
:100DD00000700040002000400030024007B007B023
:100DE000004000085D7D05C500ECC2920010014086
:100DF00006282BD8DFE800F0041E240A10161A007B
:100E0000134BD3F80008C0F340607047104BD3F881
:100E10000008C0F3404070470D4BD3F80008C0F302
:100E2000400070470A4BD3F87008F8E7084BD3F836
:100E30007408F4E7064BD3F80008C0F3407070471D
:100E4000034BD3F80008C0F3C06070470020704720
:100E50000030024008B502461046FFF7C9FF0028DF
:100E6000FAD008BD06280CD8DFE800F004282E0CC4
:100E700012182000174AD2F8003843F08073C2F8E5
:100E800000387047134AD2F8003843F48033F6E74D
:100E9000104AD2F8003843F00103F0E70D4AD2F8C7
:100EA000703843F00103C2F870387047094AD2F82D
:100EB000743843F00103C2F874387047054AD2F819
:100EC000003843F08053DAE7024AD2F8003843F0A2
:100ED0008063D4E70030024006280CD8DFE800F039
:100EE00004282E0C12182000174AD2F8003823F0DC
:100EF0008073C2F800387047134AD2F8003823F4E0
:100F00008033F6E7104AD2F8003823F00103F0E707
:100F10000D4AD2F8703823F00103C2F870387047D8
:100F2000094AD2F8743823F00103C2F874387047C4
:100F3000054AD2F8003823F08053DAE7024AD2F8A3
:100F4000003823F08063D4E700300240034AD2F82F
:100F5000003823F40023C2F8003870470030024004
:100F6000044AD2F8083823F003031843C2F80808EB
:100F7000704700BF00300240044AD2F8083823F41A
:100F8000604343EA4030C2F808087047003002402E
:100F9000044AD2F8083823F4E05343EA8020C2F828
:100FA0000808704700300240044AD2F8083823F09D
:100FB000F00343EA0010C2F808087047003002400E
:100FC00010B5029C022C38BF022424071B0603F034
:100FD000706304F0E04452081C4300F03F0047F601
:100FE000C073013A03EA8111044312040C4302F472
:100FF0004032034B144344F48004C3F8044810BD4A
:101000000030024013B504460420FFF72BFFFFF722
:1010100021FF0020FFF7A4FF0320FFF723FFFFF7C6
:1010200019FFE07B002833D100F026FF207BFFF77B
:10103000BBFF607BFFF7ACFFA07BFFF79DFFA379B1
:1010400022796188207800936379FFF7B9FF002047
:10105000FFF708FFFFF7FEFEA06800F0CBF80220C4
:10106000FFF77EFF0B4AD2F80838C3F38103022B47
:10107000F9D1094B22691A60084B62691A60A269AA
:10108000074B04201A6002B0BDE81040FFF724BFF0
:101090000120C9E7003002404C0000205000002031
:1010A000540000202DE9F0410568C46800264FF087
:1010B000030E43FA06F7FF070DD577000EFA07FC7B
:1010C00001FA07F825EA0C0524EA0C0402FA07F7EE
:1010D00048EA05053C430136102EEAD10560C4609C
:1010E000BDE8F081F0B5076A466A00234FF00F0CA7
:1010F00042FA03F4E50707D59D000CFA05F427EA48
:10110000040701FA05F52F430133082BF0D1002322
:101110004FF00F0C03F1080442FA04F4E40707D57A
:101120009C000CFA04F526EA050601FA04F42643AD
:101130000133082BEED107624662F0BD084A094B25
:1011400010B520F4806494421B6804BF064B1B68F2
:1011500001EB43034900B3FBF1F3836010BD00BF13
:10116000001001405000002054000020C3680829EE
:101170000CBF23F4805343F48053C360704703696A
:1011800023F44053194301617047C36823F4C063DB
:101190001943C1607047C36823F00C031943C16051
:1011A0007047436923F44073194341617047C36832
:1011B00043F40053C3607047C36823F40053C36013
:1011C000704713B50446019100F00FF801992046CD
:1011D00002B0BDE8104000F000B8C1F30801416062
:1011E00070474068C0F30800704703681B06FCD5D1
:1011F00070470000044AD2F8003C23F0070318436C
:10120000C2F8000C704700BF00300240074BD3F813
:10121000102C42F00042C3F8102C054AC3F8042CED
:1012200002F18832C3F8042C704700BF003002403E
:1012300023016745034AD2F8103C43F00043C2F84B
:10124000103C704700300240024AD2F80C3CDB03ED
:10125000FBD4704700300240064BD3F8101C21F439
:101260004071C3F8101CD3F8102C42EA0020C3F8D8
:10127000100C70470030024070B50C4C0E4605460D
:10128000FFF7E2FF0220FFF7E7FFD4F8103C43F03E
:101290000103C4F8103C2E60FFF7D6FFD4F8103CD1
:1012A00023F00103C4F8103C70BD00BF00300240C1
:1012B00037B5184C01910546FFF7C6FF0198FFF7B7
:1012C000CBFFD4F8103C23F0F803C4F8103CD4F85A
:1012D000103CED00EDB21D43C4F8105CD4F8103C96
:1012E00043F00203C4F8103CD4F8103C43F48033BC
:1012F000C4F8103CFFF7A8FFD4F8103C23F0020319
:10130000C4F8103CD4F8103C23F0F803C4F8103CA7
:1013100003B030BD003002400368194301607047DC
:10132000036823EA010101607047430903F1804328
:1013300003F50E3300F01F001968012202FA00F0D5
:101340000843186070470000032802D0052808D021
:101350007047084AD2F8003823F48023C2F80038D6
:101360007047044AD2F8703823F00403C2F870388A
:10137000704700BF003002402DE9F0411E4603686F
:101380000546884617469847069BC360079B03613E
:10139000BDF820308382094B0367094BC366094BB4
:1013A00083660023C0E90087C0E93233C0E93433E3
:1013B000C0F8DC508660BDE8F08100BF511B00081A
:1013C000C11B0008431C0008D0F8DC305B6A1847DA
:1013D000D0F8DC309B6A03B11847704710B4D0F8DE
:1013E000DC40A468A4465DF8044B604713B503686D
:1013F0000021C1820446DB7900910A46FFF7EEFF27
:10140000D4F8DC3000215B6820469847E3691BB1C3
:1014100002B0BDE81040184702B010BD10B4D0F8BB
:10142000DC40E469A4465DF8044B604710B4D0F892
:10143000DC40246AA4465DF8044B6047D0F8DC30F9
:101440001B691847D0F8DC309B691847D0F8DC30AE
:101450005B69184708B50B786BB949887F290BD8A9
:10146000D0F8DC30C9B2817593F830200AB15B68DE
:101470009847012300E00023184608BDF8B50D4643
:101480004988044679B103680D26587C00239842A8
:1014900001D80020F8BD626806FB032252798A4217
:1014A00003D00133F3E74FF0FF330133DBB2E375D1
:1014B0004BB9D4F8DC302046DB689847D4F8C83004
:1014C000ABB90120E6E70D226FF00C0112FB03120D
:1014D000636813440022104619799142E9D9D3F880
:1014E00009101601715801B108700132F4E70023A8
:1014F000A3642365A365236604F1C80604F1D80735
:1015000056F8043B13B1698820469847B742F7D193
:10151000D7E71988012984BF01211980C37D11688B
:101520002BB142680D2000FB032313F8083C0B701D
:101530000120704770B5C27D0D241D466FF00C036D
:1015400014FB023344688A881C442379934219D9D6
:10155000D4F809404B88160104EB021212799A4222
:1015600010D9A25952B11370D0F8D83013B14A88AB
:101570008988984700232B80012070BD002BF3D071
:101580001046FAE70020F8E770B5C67D40686FF0B6
:101590000C050D2414FB065420448D880479A542C3
:1015A0000CD201241C808B88D0F809001B011B5829
:1015B00003B11B7812680120137070BD0020FCE796
:1015C0001988022984BF02211980116800230B7039
:1015D000126801205370704710B514461A88022A09
:1015E00084BF02221A808988C9B2FFF72BFF2368C3
:1015F000003818BF01201870236800225A7001209B
:1016000010BD08B589880122C9B2FFF717FF012074
:1016100008BD08B589880022C9B2FFF70FFF012075
:1016200008BD2DE9F04F4D881F462B0A022B89B0CB
:10163000144611D0032B00F0ED80012B40F02181E6
:1016400002682260127839888A4228BF0A463A80A6
:10165000012009B0BDE8F08FEDB205EB4508036944
:10166000D0F80490136005EB88083C8819F80850FE
:101670000293A54209EB080328BF254619460298A4
:1016800003932A4600F0A2FE029B19F80880641B0F
:101690005E19A4B200230193039B1A79BDF80430AC
:1016A0009A4204D8029BA3F802803D80D0E7019BB8
:1016B000019A1B010593039BD3F8093003EB021336
:1016C000D3F808A0BAF1000F14D09AF80090A14501
:1016D00028BFA14630464A46514600F077FE9AF8A8
:1016E0000030A4EB09044D4498444E44A4B2ADB27A
:1016F0001FFA88F800230493039B059AD3F8093056
:101700001344BDF810201979914202D8019B01338E
:10171000C1E7049AD3F80CA0152101FB02F90AEBEA
:1017200009031AF809B00093A34528BFA346194638
:1017300030465A4600F04AFE1AF809309844009B99
:10174000D3F80D10A4EB0B045D445E44A4B2ADB21B
:101750001FFA88F8B1B1D3F811A0A245A8BFA246DC
:101760001FFA8AF930464A4600F030FE009BD3F853
:101770001130A4EB09044D4498444E44A4B2ADB2D8
:101780001FFA88F84FF00009009B1A791FFA89F3B5
:101790009A4202D8049B0133ADE7009BC9EB091BB9
:1017A000D3F80930079313F80B2003EB0B0AA2427E
:1017B00028BF224651463046069200F007FE079B9E
:1017C000069A13F80B30DAF80710A41A1544984457
:1017D0001644A4B2ADB21FFA88F8C1B1DAF80B20F2
:1017E000A242A8BF22461FFA82FB5A463046CDF8D5
:1017F00018B000F0EBFDDAF80B30069AA4EB0B04FE
:101800005D4498441644A4B2ADB21FFA88F809F1B9
:101810000109B9E715F0FF0506690DD10923B37079
:101820000423F37033703B88042B28BF04233B80D0
:101830000323737026600BE78368013D0BB3C26816
:10184000AA421EDD898840F20942914219D153F81B
:101850002550284600F054FE01304000C0B23070E0
:101860003B88984228BF1846388000233A8852089F
:10187000013A9A42DCDD06EB4302E95C5180013318
:10188000F4E70020E5E61988022984BF02211980C7
:10189000116800230B70126801205370704710B557
:1018A000002300F1C80454F8042B2AB10133042B9F
:1018B000F9D14FF0FF3010BD323340F823101046FD
:1018C000F9E7000010B44C78092C13D8DFE804F0D5
:1018D0000E12121212100C120A05084CA4465DF8E2
:1018E000044B6047064CF9E7064CF7E7064CF5E772
:1018F000064CF3E700205DF8044B70477D140008A8
:101900001315000823160008C11500085514000817
:1019100010B44C780A2C07D00B2C07D044B9064CD5
:10192000A4465DF8044B6047044CF9E7044CF7E724
:1019300000205DF8044B70478718000889150008DF
:101940003515000810B44C78012C04D0032C08D0B5
:101950001CB9094C09E04C885CB100205DF8044BCF
:1019600070474C88002CF8D1044CA4465DF8044B19
:101970006047034CF9E700BFD915000803160008BB
:101980001316000810B40C7814F0600F12D104F094
:101990001F04012C06D0022C08D05CB95DF8044B62
:1019A000FFF790BF5DF8044BFFF7B2BF5DF8044B43
:1019B000FFF7C8BF00205DF8044B704710B5012247
:1019C00004460021FFF73AFD002384F82C3010BDB7
:1019D00070B50368828FC48EDB79816BA41A9C4238
:1019E000A8BF1C46A6B20A44334600210546FFF7AD
:1019F0001DFD864205D02846FFF7E0FF4FF0FF307F
:101A000070BDAB8F1E44AE87A0B2F9E710B5036876
:101A1000826BD979838F994204460FD20B460021FD
:101A2000FFF7FCFC022384F82C302368A26BD979E1
:101A3000A38F0A445B1AA263A38710BD0021FFF79E
:101A4000EDFC94F84430002B14BF0223032384F8E8
:101A50002C30002384F84430A387A363EDE72DE9FD
:101A6000F04100F1380286B00446054600F1200836
:101A700000F13C0300F14007AE6C2EB9204606B0E1
:101A8000BDE8F041FFF77EBF087895F84DE095F886
:101A90004CC000EA0E00844503D008354545EBD123
:101AA000ECE700972046CDE904230391B0470128D5
:101AB000DDE90312059BF0D806B0BDE8F08138B52A
:101AC000036983638B79CA7943EA022383870446D7
:101AD0000D46FFF7C4FF00B3EB88ABB1A28F2168BE
:101AE0009342C9790ED932B1B2FBF1F301FB132253
:101AF000B2FA82F2520984F844202046BDE8384008
:101B0000FFF784BF0022F6E71A4619462046FFF782
:101B100085FC042384F82C3038BD2046BDE83840CD
:101B2000FFF74CBF70B5002400F1480656F834505A
:101B30002DB10134042CF9D14FF0FF3070BD00EB12
:101B4000C404284684F84C1084F84D20A364F5E7BB
:101B500070B5002500F130060446056401222946CF
:101B6000FFF774FC0823324629462046FFF75EFC47
:101B7000082804D02046BDE87040FFF71FBFE28E62
:101B80002AB931462046BDE87040FFF798BF94F966
:101B90003030002BF5DBA38A9342EBD32369A36398
:101BA0002368A587DB79934234BF0523062384F895
:101BB0002C302A4629462046BDE87040FFF746BC37
:101BC00010B590F82C30062B044612D0072B27D0E6
:101BD000052B21D1FFF7FCFE002809DBA28FE38E45
:101BE0009B1A2268D279934202DC062384F82C30B7
:101BF00010BDFFF7EDFE0028FADB04F130012046AE
:101C0000FFF72DFF38B100231A4619462046FFF78B
:101C100005FC0423EAE72046BDE81040FFF7CEBEEE
:101C200000231A461946FFF701FC002384F82C30E4
:101C3000236C1BB104F13001204698470023236434
:101C4000D6E710B590F82C30032B044607D0042BB0
:101C50000ED0022B23D1BDE81040FFF7D7BE0723DB
:101C600080F82C300022BDE810401146FFF7EEBB93
:101C7000036C13B100F13001984794F8303053B938
:101C800094F83130052B06D1618ED4F8DC30C9B21E
:101C90005B6820469847002384F82C3010BDBDE8CF
:101CA0001040FFF78BBE000008B540F28760FFF7D9
:101CB0003CFB4FF0A043DA6842F04002DA601A6958
:101CC000002AFCDA1A6942F001021A614FF0A043BF
:101CD0001A69D207FCD4DA6B1948B2F5005F9A6B27
:101CE0002CBF42F4041242F410229A634FF0A04336
:101CF000D3F8042822F00202C3F80428DA6842F07C
:101D0000804242F47052DA6002225A61D3F800280D
:101D100042F00302C3F800280022C3F8002E8022FC
:101D20005A62A0F8E0209A6842F001029A60054ADF
:101D30009A610F22C3F81C280122C3F8102808BD9D
:101D4000FC06002010280480FEE770471C4B1D4A4B
:101D50001D498B421FD31D4A0021934220D34FF0CF
:101D6000E0231B4CD3F8142D1A4D42F40072C3F833
:101D7000142DD3F8882D42F47002C3F8882DAC429C
:101D800011D3154C154DAC4211D3FEF78DFF144CF9
:101D9000144DAC420FD352F8040B43F8040BD8E7B0
:101DA00043F8041BD9E754F8043B9847E7E754F895
:101DB000043B9847E7E754F8043B9847E9E700BF3E
:101DC00000000020F427000858000020F807002039
:101DD000F4270008F4270008F4270008F427000877
:101DE000F4270008F42700084FF0E02320F07F409C
:101DF000586170474FF0E02200F00400136923F0AF
:101E000004030343136170474FF0E022136943F06A
:101E10000203136170474FF0E022136923F00203BD
:101E2000136170474FF0E022136943F0010313611F
:101E300070474FF0E022136923F0010313617047EC
:101E4000054B420903EB820300F01F00012202FA56
:101E500000F01860704700BF00E100E0054B420948
:101E600003EB820300F01F00012202FA00F0186069
:101E7000704700BF80E100E028B9064A136843F4C8
:101E80008043136070470128FCD1024A136803F4B1
:101E90008043F6E700700040D0F8DC30DA6AD2F810
:101EA000003823F4FE6343EA0111C2F800187047BA
:101EB000D0F8DCC02DE9F04311F07F05079FDCF876
:101EC0002C6003F07F043ED13F2B31D9C6F8005976
:101ED000DCF82C20C2F81049DCF82C10D1F80029CD
:101EE00042F00842C1F80029DCF82C2044F00054EC
:101EF00044F40024C0F8E840C2F8104BDCF82C1081
:101F0000D1F8002B42F00842C1F8002BBCF8322077
:101F1000DCF82C109B0842EA03428A62B0F8E02009
:101F200013449BB2A0F8E030A0F8E230BDE8F083A3
:101F30001F2B03D90122C6F80029C9E70F2B8CBF3C
:101F400002220322F7E709064FEA451E4FEA8242C2
:101F50002AD5B0F8E09005F14008990806EB88060C
:101F600049EA0148C6F800804944A0F8E010DCF8CE
:101F70002C1001F5116142EA855241F80E40DCF85F
:101F80002C4005F1480104EB411113430C6843F068
:101F9000184343F4004323430B60002FC6D00C23A7
:101FA00003FB05008766C1E705F13A0106F53166D6
:101FB00044F4002440F8214046F80E40DCF82C4060
:101FC00005F1580104EB411113430C6843F014432D
:101FD00043F4004323430B60002FA7D00C2303FBE3
:101FE0000500C766A2E7B0F8E230D0F8DC2010B5F3
:101FF000A0F8E0304FF43263D16A58580028BEBFD1
:10200000585840F080405850A3F50070D16A4458A9
:10201000002CB8BF445803F12003BCBF44F08044F7
:102020004450B3F5386FE7D1D36A4FF486621A6132
:1020300010BDD0F8DC0030B5C46A11BBD4F800394B
:1020400052B143F40013C4F80039C36A5831C9B21D
:1020500003EB41110B6820E023F40013C4F80039AE
:10206000C26A58312023C9B213FB0122146824F438
:1020700000141460C26A13FB01210B6843F0805303
:102080000DE00B0616D501F07F012023483111FB2E
:1020900003F513FB01410B681AB143F400130B6005
:1020A00007E023F400130B60C26AAB5843F080537F
:1020B000AB5030BD002AD3D0C7E7D0F8DC3011F0E8
:1020C000800FDA6A14BF01F07F0158314FF020030E
:1020D00014BF4831C9B213FB01210868C0F3405056
:1020E00070470B060CD44318583183F8E420D0F81D
:1020F000DC304901DB6A22B1CA5842F00062CA50A2
:102100007047CA5842F08062F9E7F0B5D0F8DC6059
:10211000F06A01F07F0100F51160202414FB01003A
:1021200005682D0318D443F400270760F06A01F115
:10213000480714FB07000131046844F004441D46BD
:1021400004600903002D01DC1846F0BDF06A52F866
:10215000044B0C50043DF5E70023F5E737B5B0F824
:10216000F8509D4228BF1D46014614462B46032BBE
:102170001FDCA8086FF0030303FB005302EB800091
:10218000A3B1D1F8DC20B1F8F840D26A032C02F5F3
:10219000805288BF043C126801928CBFA4B2002414
:1021A000A1F8F8401A4601A900F010F9284603B03A
:1021B00030BDD1F8DC00C06A00F58050043B0068F7
:1021C00044F8040BB1F8F8000438A1F8F800CEE7A1
:1021D000D0F8DC30DA6A2DE9F047556915F400567D
:1021E000044609D05B8E4FF400515161BDE8F047C1
:1021F000A0F8E030FFF7FAB800F168084FF00C09DA
:102200004FF0010AD4F8DC30DB6A770103F60813DB
:10221000DB59DB070ED509FB06F358F8033013B181
:10222000F1B220469847D4F8DC30DB6A03F6081395
:1022300043F807A00136042EE4D1EE0652D5D4F8B7
:10224000DC00C36A1E6A06F4F012B2F5C02F06F075
:102250000F0102D0B2F5002F1CD1202201F13A0566
:1022600003F5316312FB013354F825501D60C36A36
:1022700001F15805214412FB053391F8E4101A6866
:10228000002914BF4FF008414FF004410A431A607F
:10229000BDE8F087B2F5802F7BD0B2F5402FF7D1A3
:1022A000202203F5116C12FB01CC11FB02F7DCF8C4
:1022B00000C01CF4002F40D1022201EB4103134463
:1022C0001A33C6F30A1654F82330A4F8F8600BB199
:1022D00020469847B4F8F810002399425BDC0023AD
:1022E000A4F8F8302A0508D5236A03B19847D4F832
:1022F000DC30DB6A4FF400625A61002D08DA636A51
:1023000003B19847D4F8DC30DB6A4FF000425A61E1
:102310002B0707D5A36A03B19847D4F8DC30DB6AF2
:1023200008225A61D4F8DC30A26ADB6A002A3AD06B
:102330009A6942F008029A61AAE701F1480E12FB7D
:102340000E331EFB02FC1A6842F000621A60C26A79
:1023500002F608133B44D3F800E01EF0400FFAD019
:102360005CF802309B0DD2F810E0BEF1000FFADAF3
:102370009B0103F4707343F020031361C36A03F5F8
:1023800011630022DA51C36A10331A689006FCD434
:1023900092E7012291E7D4F8DC20D26A02F580525C
:1023A0000433126899E79A6922F00802C3E7D0F86B
:1023B000DC30DB6AD3F8042821B142F00202C3F812
:1023C0000428704722F00202F9E70000844641EA3F
:1023D000000313F003036DD1403A41D351F8043B9D
:1023E00040F8043B51F8043B40F8043B51F8043BEF
:1023F00040F8043B51F8043B40F8043B51F8043BDF
:1024000040F8043B51F8043B40F8043B51F8043BCE
:1024100040F8043B51F8043B40F8043B51F8043BBE
:1024200040F8043B51F8043B40F8043B51F8043BAE
:1024300040F8043B51F8043B40F8043B51F8043B9E
:1024400040F8043B51F8043B40F8043B51F8043B8E
:1024500040F8043B51F8043B40F8043B403ABDD2FD
:10246000303211D351F8043B40F8043B51F8043B9F
:1024700040F8043B51F8043B40F8043B51F8043B5E
:1024800040F8043B103AEDD20C3205D351F8043B2E
:1024900040F8043B043AF9D2043208D0D2071CBFFA
:1024A00011F8013B00F8013B01D30B880380604623
:1024B000704700BF082A13D38B078DD010F0030399
:1024C0008AD0C3F10403D21ADB071CBF11F8013B09
:1024D00000F8013B80D331F8023B20F8023B7BE758
:1024E000043AD9D3013A11F8013B00F8013BF9D283
:1024F0000B7803704B7843708B788370604670471D
:1025000090F800F06DE9024520F007016FF0000C33
:1025100010F0070491F820F040F049804FF00004DB
:102520006FF00700D1E9002391F840F000F10800B6
:1025300082FA4CF2A4FA8CF283FA4CF3A2FA8CF3EE
:102540004BBBD1E9022382FA4CF200F10800A4FA55
:102550008CF283FA4CF3A2FA8CF3E3B9D1E90423A9
:1025600082FA4CF200F10800A4FA8CF283FA4CF3E0
:10257000A2FA8CF37BB9D1E9062301F1200182FA9A
:102580004CF200F10800A4FA8CF283FA4CF3A2FAA0
:102590008CF3002BC6D0002A04BF04301A4612BAAE
:1025A000B2FA82F2FDE8024500EBD2007047D1E9B1
:1025B000002304F00305C4F100004FEAC50514F040
:1025C000040F91F840F00CFA05F562EA05021CBF11
:1025D00063EA050362464FF00004A9E70500000026
:1025E000416E746172696B636879610041504E207D
:1025F00050484920424C20763100300000C2010092
:102600000000080902000002010080FA24260008E8
:102610001201000202000040AC261200010101027A
:1026200003010000000000000100000000000000A5
:102630005926000800000000010000000000000012
:102640004426000809040100020A00000081260057
:102650000800000000000000000904000001020260
:1026600001009F2600086E260008130000000524C4
:1026700000100105240100010424020005240600C5
:1026800001070501024000010000000000000000F9
:102690000705820240000100000000000000000762
:1026A0000583031000FF00000000000000005354E9
:1026B0004D3332463F3F3F0053544D333246343062
:1026C000780053544D3332463432780053544D33EE
:1026D00032463434365858000100000000400000F3
:1026E0000200000000400000030000000040000065
:1026F00004000000000001000500000000000200CE
:1027000006000000000002000700000000000200B8
:1027100008000000000002000900000000000200A4
:102720000A000000000002000B0000000000020090
:1027300010000000004000001100000000400000F8
:1027400012000000004000001300000000400000E4
:10275000140000000000010015000000000002004D
:102760001600000000000200170000000000020038
:102770001800000000000200190000000000020024
:102780001A000000000002001B0000000000020010
:1027900018005001020700000506000000050400B3
:1027A0000000000080DE800200BD01050120330032
:1027B0000010410001105A000310590007103100A9
:1027C000A91C0008991E0008B11E0008E71F000898
:1027D00033200008E3200008BB2000080B2100087C
:1027E0005D210008D1210008AF230008000000503F
:0427F0000100800064
:1027F400E0250008EC250008FA250008AE000000DA
:102804000000000000000000A8000000000000001C
:10281400AE2600083F00000013040000B82600089C
:102824003F00000019040000C22600083F00000019
:1028340021040000CC2600083F0000000024F4001E
:082844000024F4000024F4005C
:0400000508000000EF
:00000001FF
